:020000040000fa
:080000000002040000000000f2
:020000040000fa
:0400080026030000cb
:020000040000fa
:04000c0026030000c7
:020000040000fa
:0400100026030000c3
:020000040000fa
:0400140026030000bf
:020000040000fa
:0400180026030000bb
:020000040000fa
:04001c0026030000b7
:020000040000fa
:0400200026030000b3
:020000040000fa
:0400240026030000af
:020000040000fa
:0400280026030000ab
:020000040000fa
:04002c0026030000a7
:020000040000fa
:0400300026030000a3
:020000040000fa
:0400340004030000c1
:020000040000fa
:04003800260300009b
:020000040000fa
:04003c002603000097
:020000040000fa
:040040002603000093
:020000040000fa
:04004400260300008f
:020000040000fa
:04004800260300008b
:020000040000fa
:04004c002603000087
:020000040000fa
:040050002603000083
:020000040000fa
:04005400260300007f
:020000040000fa
:04005800260300007b
:020000040000fa
:04005c002603000077
:020000040000fa
:040060002603000073
:020000040000fa
:04006400260300006f
:020000040000fa
:04006800260300006b
:020000040000fa
:04006c002603000067
:020000040000fa
:040070002603000063
:020000040000fa
:04007400260300005f
:020000040000fa
:04007800260300005b
:020000040000fa
:04007c002603000057
:020000040000fa
:040080002603000053
:020000040000fa
:04008400260300004f
:020000040000fa
:04008800260300004b
:020000040000fa
:04008c002603000047
:020000040000fa
:040090002603000043
:020000040000fa
:04009400260300003f
:020000040000fa
:04009800260300003b
:020000040000fa
:04009c002603000037
:020000040000fa
:0400a0002603000033
:020000040000fa
:0400a400260300002f
:020000040000fa
:0400a800260300002b
:020000040000fa
:0400ac002603000027
:020000040000fa
:0400b0002603000023
:020000040000fa
:0400b400260300001f
:020000040000fa
:0400b800260300001b
:020000040000fa
:0400bc002603000017
:020000040000fa
:0400c0002603000013
:020000040000fa
:0400c400260300000f
:020000040000fa
:0400c800260300000b
:020000040000fa
:0400cc002603000007
:020000040000fa
:0400d0002603000003
:020000040000fa
:0400d40026030000ff
:020000040000fa
:0400d80026030000fb
:020000040000fa
:0400dc0026030000f7
:020000040000fa
:0400e00026030000f3
:020000040000fa
:0400e40026030000ef
:020000040000fa
:0400e80026030000eb
:020000040000fa
:0400ec0026030000e7
:020000040000fa
:0400f00026030000e3
:020000040000fa
:0400f40026030000df
:020000040000fa
:0400f80026030000db
:020000040000fa
:0400fc0026030000d7
:020000040000fa
:0401000026030000d2
:020000040000fa
:0401040026030000ce
:020000040000fa
:0401080026030000ca
:020000040000fa
:04010c0026030000c6
:020000040000fa
:0401100026030000c2
:020000040000fa
:0401140026030000be
:020000040000fa
:0401180026030000ba
:020000040000fa
:04011c0026030000b6
:020000040000fa
:0401200026030000b2
:020000040000fa
:0401240026030000ae
:020000040000fa
:0401280026030000aa
:020000040000fa
:04012c0026030000a6
:020000040000fa
:0401300026030000a2
:020000040000fa
:04013400260300009e
:020000040000fa
:04013800260300009a
:020000040000fa
:04013c002603000096
:020000040000fa
:040140002603000092
:020000040000fa
:04014400260300008e
:020000040000fa
:04014800260300008a
:020000040000fa
:04014c002603000086
:020000040000fa
:040150002603000082
:020000040000fa
:04015400260300007e
:020000040000fa
:04015800260300007a
:020000040000fa
:04015c002603000076
:020000040000fa
:040160002603000072
:020000040000fa
:04016400260300006e
:020000040000fa
:04016800260300006a
:020000040000fa
:04016c002603000066
:020000040000fa
:040170002603000062
:020000040000fa
:04017400260300005e
:020000040000fa
:04017800260300005a
:020000040000fa
:04017c002603000056
:020000040000fa
:040180002603000052
:020000040000fa
:04018400260300004e
:020000040000fa
:04018800260300004a
:020000040000fa
:04018c002603000046
:020000040000fa
:040190002603000042
:020000040000fa
:04019400260300003e
:020000040000fa
:04019800260300003a
:020000040000fa
:04019c002603000036
:020000040000fa
:0401a0002603000032
:020000040000fa
:0401a400260300002e
:020000040000fa
:0401a800260300002a
:020000040000fa
:0401ac002603000026
:020000040000fa
:0401b0002603000022
:020000040000fa
:0401b400260300001e
:020000040000fa
:0401b800260300001a
:020000040000fa
:0401bc002603000016
:020000040000fa
:0401c0002603000012
:020000040000fa
:0401c400260300000e
:020000040000fa
:0401c800260300000a
:020000040000fa
:0401cc002603000006
:020000040000fa
:0401d0002603000002
:020000040000fa
:0401d40026030000fe
:020000040000fa
:0401d80026030000fa
:020000040000fa
:0401dc0026030000f6
:020000040000fa
:0401e00026030000f2
:020000040000fa
:0401e40026030000ee
:020000040000fa
:0401e80026030000ea
:020000040000fa
:0401ec0026030000e6
:020000040000fa
:0401f00026030000e2
:020000040000fa
:0401f40026030000de
:020000040000fa
:0401f80026030000da
:020000040000fa
:0401fc0026030000d6
:020000040000fa
:0402080026030000c9
:020000040000fa
:04020c0026030000c5
:020000040000fa
:0402100026030000c1
:020000040000fa
:0402140026030000bd
:020000040000fa
:0402180026030000b9
:020000040000fa
:04021c0026030000b5
:020000040000fa
:0402200026030000b1
:020000040000fa
:0402240026030000ad
:020000040000fa
:0402280026030000a9
:020000040000fa
:04022c0026030000a5
:020000040000fa
:0402300026030000a1
:020000040000fa
:0402340004030000bf
:020000040000fa
:040238002603000099
:020000040000fa
:04023c002603000095
:020000040000fa
:040240002603000091
:020000040000fa
:04024400260300008d
:020000040000fa
:040248002603000089
:020000040000fa
:04024c002603000085
:020000040000fa
:040250002603000081
:020000040000fa
:04025400260300007d
:020000040000fa
:040258002603000079
:020000040000fa
:04025c002603000075
:020000040000fa
:040260002603000071
:020000040000fa
:04026400260300006d
:020000040000fa
:040268002603000069
:020000040000fa
:04026c002603000065
:020000040000fa
:040270002603000061
:020000040000fa
:04027400260300005d
:020000040000fa
:040278002603000059
:020000040000fa
:04027c002603000055
:020000040000fa
:040280002603000051
:020000040000fa
:04028400260300004d
:020000040000fa
:040288002603000049
:020000040000fa
:04028c002603000045
:020000040000fa
:040290002603000041
:020000040000fa
:04029400260300003d
:020000040000fa
:040298002603000039
:020000040000fa
:04029c002603000035
:020000040000fa
:0402a0002603000031
:020000040000fa
:0402a400260300002d
:020000040000fa
:0402a8002603000029
:020000040000fa
:0402ac002603000025
:020000040000fa
:0402b0002603000021
:020000040000fa
:0402b400260300001d
:020000040000fa
:0402b8002603000019
:020000040000fa
:0402bc002603000015
:020000040000fa
:0402c0002603000011
:020000040000fa
:0402c400260300000d
:020000040000fa
:0402c8002603000009
:020000040000fa
:0402cc002603000005
:020000040000fa
:0402d0002603000001
:020000040000fa
:0402d40026030000fd
:020000040000fa
:0402d80026030000f9
:020000040000fa
:0402dc0026030000f5
:020000040000fa
:0402e00026030000f1
:020000040000fa
:0402e40026030000ed
:020000040000fa
:0402e80026030000e9
:020000040000fa
:0402ec0026030000e5
:020000040000fa
:0402f00026030000e1
:020000040000fa
:0402f40026030000dd
:020000040000fa
:0402f80026030000d9
:020000040000fa
:0402fc0026030000d5
:020000040000fa
:0403000026030000d0
:020000040000fa
:0403040026030000cc
:020000040000fa
:0403080026030000c8
:020000040000fa
:04030c0026030000c4
:020000040000fa
:0403100026030000c0
:020000040000fa
:0403140026030000bc
:020000040000fa
:0403180026030000b8
:020000040000fa
:04031c0026030000b4
:020000040000fa
:0403200026030000b0
:020000040000fa
:0403240026030000ac
:020000040000fa
:0403280026030000a8
:020000040000fa
:04032c0026030000a4
:020000040000fa
:0403300026030000a0
:020000040000fa
:04033400260300009c
:020000040000fa
:040338002603000098
:020000040000fa
:04033c002603000094
:020000040000fa
:040340002603000090
:020000040000fa
:04034400260300008c
:020000040000fa
:040348002603000088
:020000040000fa
:04034c002603000084
:020000040000fa
:040350002603000080
:020000040000fa
:04035400260300007c
:020000040000fa
:040358002603000078
:020000040000fa
:04035c002603000074
:020000040000fa
:040360002603000070
:020000040000fa
:04036400260300006c
:020000040000fa
:040368002603000068
:020000040000fa
:04036c002603000064
:020000040000fa
:040370002603000060
:020000040000fa
:04037400260300005c
:020000040000fa
:040378002603000058
:020000040000fa
:04037c002603000054
:020000040000fa
:040380002603000050
:020000040000fa
:04038400260300004c
:020000040000fa
:040388002603000048
:020000040000fa
:04038c002603000044
:020000040000fa
:040390002603000040
:020000040000fa
:04039400260300003c
:020000040000fa
:040398002603000038
:020000040000fa
:04039c002603000034
:020000040000fa
:0403a0002603000030
:020000040000fa
:0403a400260300002c
:020000040000fa
:0403a8002603000028
:020000040000fa
:0403ac002603000024
:020000040000fa
:0403b0002603000020
:020000040000fa
:0403b400260300001c
:020000040000fa
:0403b8002603000018
:020000040000fa
:0403bc002603000014
:020000040000fa
:0403c0002603000010
:020000040000fa
:0403c400260300000c
:020000040000fa
:0403c8002603000008
:020000040000fa
:0403cc002603000004
:020000040000fa
:0403d0002603000000
:020000040000fa
:0403d40026030000fc
:020000040000fa
:0403d80026030000f8
:020000040000fa
:0403dc0026030000f4
:020000040000fa
:0403e00026030000f0
:020000040000fa
:0403e40026030000ec
:020000040000fa
:0403e80026030000e8
:020000040000fa
:0403ec0026030000e4
:020000040000fa
:0403f00026030000e0
:020000040000fa
:0403f40026030000dc
:020000040000fa
:0403f80026030000d8
:020000040000fa
:0403fc0026030000d4
:020000040000fa
:100400002f8020000e7f22000e01880000000000d7
:10041000000020000000e000020032000001200087
:1004200020028800140007008a0007000000e00096
:1004300003003a004036200001002000020037008f
:100440000000200001002000810f70000100320038
:1004500014000700000020000000e000020032004d
:1004600000000200000000002c0302000000000059
:100470000040da000000fe004440a90020002000f7
:100480000000e0000300320010002000900188000e
:100490004440a800000006008a1f78008b1f7800e7
:1004a00000000600a1028800800478000000eb0034
:1004b0001f003700e284440054a0b4009905ba003c
:1004c000e284440054a0b4009906ba00e2844400d7
:1004d00054a0b4000006eb00476fde00fd07b20039
:1004e000ae018800636ce10003003a00eaff0700f8
:1004f0000000eb000e003700606ce10008003a00dd
:10050000004deb000a05e800020039003420ec0041
:100510000af0a0008b05e900f9ff3e000400370057
:100520006168e100010032000086eb000b0007006b
:1005300019c7ba001905ba000e04e00003003a001a
:100540000a00e000dbff3a0000000600fe07b200f0
:10055000ae0288008a047800f5ff37000cd0a300b3
:10056000e20f4d001c00390089027800354dba00b9
:100570000a05e800020039003420ec000af0a0006f
:100580008b05e9000f003200254dba000a05e8008e
:10059000020039003420ec000af0a0008b05e900cd
:1005a000080032000c00e0000600320015cdba0051
:1005b0000a05e800020039003420ec000af0a0002f
:1005c0008b05e9008984e80054a0b4000b00e0002a
:1005d000e2ff3a00000006009902ba00055d7800cb
:1005e0008b05e900f7ff3200c82ade00055d7800c0
:1005f0008b05e900f3ff32000c00e000f1ff320050
:1006000019ddba00eeff3700801f78003200f800d5
:100610003400f80010002000a00188001000200025
:10062000900188000000fa0000c8bf000040e80008
:1006300000e8b7008460a9000080fa003400f900e7
:100640003200f9004f007800004006000040da0058
:080650000000fe00000005009f
:020000040000fa
:100658000000fa005022ef0081128000f0fc2f0009
:10066800008060000050a000801288005022a9007d
:1006780050c2a9004c22ef0090d0230070128800cd
:100688008460a90021058000000027000100700097
:10069800200588009460a8008ac1a90051e2a8003a
:1006a80000c8bf00614060000004e00002003a009a
:1006b8008cc1a800faff37008cc1a900f8ff3700e9
:020000040000fa
:1006c8000008000002000000800000000000000098
:020000040000fa
:020000040002f8
:04aff0003ffe000020
:020000040000fa
:020000040002f8
:04aff400ffef00006b
:020000040000fa
:020000040002f8
:04aff800bdba0000de
:020000040000fa
:020000040002f8
:04affc003f7f000093
:00000001FF
